{
  "_format": "hh-sol-artifact-1",
  "contractName": "DrugTracker",
  "sourceName": "contracts/DrugTracker.sol",
  "abi": [
    {
      "anonymous": false,
      "inputs": [
        {
          "indexed": false,
          "internalType": "string",
          "name": "id",
          "type": "string"
        },
        {
          "indexed": true,
          "internalType": "address",
          "name": "by",
          "type": "address"
        }
      ],
      "name": "BatchCreated",
      "type": "event"
    },
    {
      "anonymous": false,
      "inputs": [
        {
          "indexed": false,
          "internalType": "string",
          "name": "id",
          "type": "string"
        },
        {
          "indexed": true,
          "internalType": "address",
          "name": "to",
          "type": "address"
        }
      ],
      "name": "BatchTransferred",
      "type": "event"
    },
    {
      "anonymous": false,
      "inputs": [
        {
          "indexed": false,
          "internalType": "string",
          "name": "id",
          "type": "string"
        }
      ],
      "name": "TamperDetected",
      "type": "event"
    },
    {
      "inputs": [
        {
          "internalType": "string",
          "name": "",
          "type": "string"
        }
      ],
      "name": "batches",
      "outputs": [
        {
          "internalType": "string",
          "name": "id",
          "type": "string"
        },
        {
          "internalType": "string",
          "name": "name",
          "type": "string"
        },
        {
          "internalType": "string",
          "name": "origin",
          "type": "string"
        },
        {
          "internalType": "string",
          "name": "composition",
          "type": "string"
        },
        {
          "internalType": "uint256",
          "name": "expiry",
          "type": "uint256"
        },
        {
          "internalType": "address",
          "name": "currentHolder",
          "type": "address"
        },
        {
          "internalType": "bool",
          "name": "isTampered",
          "type": "bool"
        }
      ],
      "stateMutability": "view",
      "type": "function"
    },
    {
      "inputs": [
        {
          "internalType": "string",
          "name": "_id",
          "type": "string"
        },
        {
          "internalType": "string",
          "name": "_name",
          "type": "string"
        },
        {
          "internalType": "string",
          "name": "_origin",
          "type": "string"
        },
        {
          "internalType": "string",
          "name": "_composition",
          "type": "string"
        },
        {
          "internalType": "uint256",
          "name": "_expiry",
          "type": "uint256"
        }
      ],
      "name": "createBatch",
      "outputs": [],
      "stateMutability": "nonpayable",
      "type": "function"
    },
    {
      "inputs": [
        {
          "internalType": "string",
          "name": "_id",
          "type": "string"
        }
      ],
      "name": "flagTamper",
      "outputs": [],
      "stateMutability": "nonpayable",
      "type": "function"
    },
    {
      "inputs": [
        {
          "internalType": "string",
          "name": "_id",
          "type": "string"
        },
        {
          "internalType": "address",
          "name": "_to",
          "type": "address"
        }
      ],
      "name": "transferBatch",
      "outputs": [],
      "stateMutability": "nonpayable",
      "type": "function"
    }
  ],
  "bytecode": "0x6080604052348015600f57600080fd5b506110458061001f6000396000f3fe608060405234801561001057600080fd5b506004361061004c5760003560e01c806336ce367a146100515780637ef1446a1461006d578063b401563b146100a3578063b9375168146100bf575b600080fd5b61006b6004803603810190610066919061091f565b6100db565b005b61008760048036038101906100829190610a0a565b610266565b60405161009a9796959493929190610b3d565b60405180910390f35b6100bd60048036038101906100b89190610bf4565b61050b565b005b6100d960048036038101906100d49190610a0a565b61066c565b005b6040518060e001604052808681526020018581526020018481526020018381526020018281526020013373ffffffffffffffffffffffffffffffffffffffff168152602001600015158152506000866040516101379190610c8c565b9081526020016040518091039020600082015181600001908161015a9190610eaf565b5060208201518160010190816101709190610eaf565b5060408201518160020190816101869190610eaf565b50606082015181600301908161019c9190610eaf565b506080820151816004015560a08201518160050160006101000a81548173ffffffffffffffffffffffffffffffffffffffff021916908373ffffffffffffffffffffffffffffffffffffffff16021790555060c08201518160050160146101000a81548160ff0219169083151502179055509050503373ffffffffffffffffffffffffffffffffffffffff167faa2e1f9e65e9df2b17cca112ac2b09c46401f1dba8fc33f495fb371ac508459a866040516102579190610f81565b60405180910390a25050505050565b60008180516020810182018051848252602083016020850120818352809550505050505060009150905080600001805461029f90610cd2565b80601f01602080910402602001604051908101604052809291908181526020018280546102cb90610cd2565b80156103185780601f106102ed57610100808354040283529160200191610318565b820191906000526020600020905b8154815290600101906020018083116102fb57829003601f168201915b50505050509080600101805461032d90610cd2565b80601f016020809104026020016040519081016040528092919081815260200182805461035990610cd2565b80156103a65780601f1061037b576101008083540402835291602001916103a6565b820191906000526020600020905b81548152906001019060200180831161038957829003601f168201915b5050505050908060020180546103bb90610cd2565b80601f01602080910402602001604051908101604052809291908181526020018280546103e790610cd2565b80156104345780601f1061040957610100808354040283529160200191610434565b820191906000526020600020905b81548152906001019060200180831161041757829003601f168201915b50505050509080600301805461044990610cd2565b80601f016020809104026020016040519081016040528092919081815260200182805461047590610cd2565b80156104c25780601f10610497576101008083540402835291602001916104c2565b820191906000526020600020905b8154815290600101906020018083116104a557829003601f168201915b5050505050908060040154908060050160009054906101000a900473ffffffffffffffffffffffffffffffffffffffff16908060050160149054906101000a900460ff16905087565b3373ffffffffffffffffffffffffffffffffffffffff166000836040516105329190610c8c565b908152602001604051809103902060050160009054906101000a900473ffffffffffffffffffffffffffffffffffffffff1673ffffffffffffffffffffffffffffffffffffffff16146105ba576040517f08c379a00000000000000000000000000000000000000000000000000000000081526004016105b190610fef565b60405180910390fd5b806000836040516105cb9190610c8c565b908152602001604051809103902060050160006101000a81548173ffffffffffffffffffffffffffffffffffffffff021916908373ffffffffffffffffffffffffffffffffffffffff1602179055508073ffffffffffffffffffffffffffffffffffffffff167fb108146fa14cdbe358a16288b2358292cfe7ba0d552a99c0828f44002bd2b6c8836040516106609190610f81565b60405180910390a25050565b3373ffffffffffffffffffffffffffffffffffffffff166000826040516106939190610c8c565b908152602001604051809103902060050160009054906101000a900473ffffffffffffffffffffffffffffffffffffffff1673ffffffffffffffffffffffffffffffffffffffff161461071b576040517f08c379a000000000000000000000000000000000000000000000000000000000815260040161071290610fef565b60405180910390fd5b600160008260405161072d9190610c8c565b908152602001604051809103902060050160146101000a81548160ff0219169083151502179055507fdcd223ca14fd4fbf03d3b49c92a58c33f4a78e927be0e03b570bee7fe9bd0d5b816040516107849190610f81565b60405180910390a150565b6000604051905090565b600080fd5b600080fd5b600080fd5b600080fd5b6000601f19601f8301169050919050565b7f4e487b7100000000000000000000000000000000000000000000000000000000600052604160045260246000fd5b6107f6826107ad565b810181811067ffffffffffffffff82111715610815576108146107be565b5b80604052505050565b600061082861078f565b905061083482826107ed565b919050565b600067ffffffffffffffff821115610854576108536107be565b5b61085d826107ad565b9050602081019050919050565b82818337600083830152505050565b600061088c61088784610839565b61081e565b9050828152602081018484840111156108a8576108a76107a8565b5b6108b384828561086a565b509392505050565b600082601f8301126108d0576108cf6107a3565b5b81356108e0848260208601610879565b91505092915050565b6000819050919050565b6108fc816108e9565b811461090757600080fd5b50565b600081359050610919816108f3565b92915050565b600080600080600060a0868803121561093b5761093a610799565b5b600086013567ffffffffffffffff8111156109595761095861079e565b5b610965888289016108bb565b955050602086013567ffffffffffffffff8111156109865761098561079e565b5b610992888289016108bb565b945050604086013567ffffffffffffffff8111156109b3576109b261079e565b5b6109bf888289016108bb565b935050606086013567ffffffffffffffff8111156109e0576109df61079e565b5b6109ec888289016108bb565b92505060806109fd8882890161090a565b9150509295509295909350565b600060208284031215610a2057610a1f610799565b5b600082013567ffffffffffffffff811115610a3e57610a3d61079e565b5b610a4a848285016108bb565b91505092915050565b600081519050919050565b600082825260208201905092915050565b60005b83811015610a8d578082015181840152602081019050610a72565b60008484015250505050565b6000610aa482610a53565b610aae8185610a5e565b9350610abe818560208601610a6f565b610ac7816107ad565b840191505092915050565b610adb816108e9565b82525050565b600073ffffffffffffffffffffffffffffffffffffffff82169050919050565b6000610b0c82610ae1565b9050919050565b610b1c81610b01565b82525050565b60008115159050919050565b610b3781610b22565b82525050565b600060e0820190508181036000830152610b57818a610a99565b90508181036020830152610b6b8189610a99565b90508181036040830152610b7f8188610a99565b90508181036060830152610b938187610a99565b9050610ba26080830186610ad2565b610baf60a0830185610b13565b610bbc60c0830184610b2e565b98975050505050505050565b610bd181610b01565b8114610bdc57600080fd5b50565b600081359050610bee81610bc8565b92915050565b60008060408385031215610c0b57610c0a610799565b5b600083013567ffffffffffffffff811115610c2957610c2861079e565b5b610c35858286016108bb565b9250506020610c4685828601610bdf565b9150509250929050565b600081905092915050565b6000610c6682610a53565b610c708185610c50565b9350610c80818560208601610a6f565b80840191505092915050565b6000610c988284610c5b565b915081905092915050565b7f4e487b7100000000000000000000000000000000000000000000000000000000600052602260045260246000fd5b60006002820490506001821680610cea57607f821691505b602082108103610cfd57610cfc610ca3565b5b50919050565b60008190508160005260206000209050919050565b60006020601f8301049050919050565b600082821b905092915050565b600060088302610d657fffffffffffffffffffffffffffffffffffffffffffffffffffffffffffffffff82610d28565b610d6f8683610d28565b95508019841693508086168417925050509392505050565b6000819050919050565b6000610dac610da7610da2846108e9565b610d87565b6108e9565b9050919050565b6000819050919050565b610dc683610d91565b610dda610dd282610db3565b848454610d35565b825550505050565b600090565b610def610de2565b610dfa818484610dbd565b505050565b5b81811015610e1e57610e13600082610de7565b600181019050610e00565b5050565b601f821115610e6357610e3481610d03565b610e3d84610d18565b81016020851015610e4c578190505b610e60610e5885610d18565b830182610dff565b50505b505050565b600082821c905092915050565b6000610e8660001984600802610e68565b1980831691505092915050565b6000610e9f8383610e75565b9150826002028217905092915050565b610eb882610a53565b67ffffffffffffffff811115610ed157610ed06107be565b5b610edb8254610cd2565b610ee6828285610e22565b600060209050601f831160018114610f195760008415610f07578287015190505b610f118582610e93565b865550610f79565b601f198416610f2786610d03565b60005b82811015610f4f57848901518255600182019150602085019450602081019050610f2a565b86831015610f6c5784890151610f68601f891682610e75565b8355505b6001600288020188555050505b505050505050565b60006020820190508181036000830152610f9b8184610a99565b905092915050565b7f556e617574686f72697a65640000000000000000000000000000000000000000600082015250565b6000610fd9600c83610a5e565b9150610fe482610fa3565b602082019050919050565b6000602082019050818103600083015261100881610fcc565b905091905056fea26469706673582212208362ecb3a7e63042dbf88e8c030d32170d541410d549279197372e18ae385bca64736f6c634300081c0033",
  "linkReferences": {},
  "deployedLinkReferences": {}
}